:020000040000FA
:100000000C9463000C948B000C948B000C948B006C
:100010000C948B000C948B000C948B000C948B0034
:100020000C948B000C948B000C948B000C948B0024
:100030000C948B000C948B000C948B000C948B0014
:100040000C94E00F0C948B000C9450100C942A101C
:100050000C948B000C948B000C948B000C948B00F4
:100060000C9482100C948B000000000023002600EA
:10007000290000000000240027002A0000000000E2
:10008000250028002B0004040404040404040202D4
:100090000202020203030303030301020408102007
:1000A0004080010204081020010204081020000012
:1000B0000008000201000003040700000000000027
:1000C0000000A111DD1911241FBECFEFD8E0DEBF63
:1000D000CDBF24E0A6EFB2E001C01D92A03DB20763
:1000E000E1F712E0A0E0B1E0E0E9FCE302C0059036
:1000F0000D92A63FB107D9F710E0C2E6D0E004C0E8
:100100002197FE010E94341CC136D107C9F70E9415
:1001100025120C943B1E0C94000008950895833022
:1001200081F028F4813099F08230A9F00895873069
:10013000A9F08830C9F08430B1F4809180008F7DBF
:1001400003C0809180008F7780938000089584B5EC
:100150008F7784BD089584B58F7DFBCF8091B000EB
:100160008F778093B00008958091B0008F7DF9CF94
:100170001F93CF93DF93282F30E0F901E255FF4F13
:100180008491F901E656FF4FD491F901EA57FF4FE8
:10019000C491CC23A9F0162F81110E948F00EC2F5F
:1001A000F0E0EE0FFF1FE458FF4FA591B4918FB719
:1001B000F894EC91111108C0D095DE23DC938FBF29
:1001C000DF91CF911F910895DE2BF8CFCF93DF936E
:1001D00090E0FC01E656FF4F24918A579F4FFC01A7
:1001E00084918823D1F090E0880F991FFC01EE588C
:1001F000FF4FA591B491FC01E458FF4FC591D491F4
:1002000061110EC09FB7F8948C91E22FE0958E2378
:100210008C932881E223E8839FBFDF91CF910895DB
:100220008FB7F894EC91E22BEC938FBFF6CF8E5002
:10023000806480937C0080917A00806480937A004F
:1002400080917A0086FDFCCF8091780090917900B2
:1002500008953FB7F8948091D5039091D603A0916B
:10026000D703B091D80326B5A89B05C02F3F19F03E
:100270000196A11DB11D3FBFBA2FA92F982F882726
:10028000BC01CD01620F711D811D911D42E0660F01
:10029000771F881F991F4A95D1F708958F929F92D3
:1002A000AF92BF92CF92DF92EF92FF924B015C012F
:1002B0000E9429016B017C010E9429016C197D09B2
:1002C0008E099F09683E734081059105A8F321E0DE
:1002D000821A9108A108B10888EEC80E83E0D81EE2
:1002E000E11CF11C81149104A104B10429F7FF90D1
:1002F000EF90DF90CF90BF90AF909F908F90089538
:10030000DC01ED91FC910190F081E02D0994AF9218
:10031000BF92CF92DF92EF92FF920F931F93CF93F2
:10032000DF936C017B018B01040F151FEB015E0154
:10033000AE18BF08C017D10759F06991D601ED91E9
:10034000FC910190F081E02DC6010995892B79F788
:10035000C501DF91CF911F910F91FF90EF90DF903A
:10036000CF90BF90AF900895FC01538D448D252F01
:1003700030E0842F90E0821B930B541710F0CF963F
:10038000089501970895FC01918D828D981761F071
:10039000A28DAE0FBF2FB11D5D968C91928D9F5F88
:1003A0009F73928F90E008958FEF9FEF08952FB77E
:1003B000F8948091D9039091DA03A091DB03B09176
:1003C000DC032FBF8093ED039093EE03A093EF0324
:1003D000B093F00385EE93E00E94C30197FF26C01F
:1003E0002FB7F8948091D9039091DA03A091DB03A1
:1003F000B091DC032FBF4091ED035091EE0360916B
:10040000EF037091F003841B950BA60BB70B409183
:10041000E9035091EA036091EB037091EC038417B8
:100420009507A607B707B0F28FEF9FEF0895FC017D
:10043000918D828D981731F0828DE80FF11D858D99
:1004400090E008958FEF9FEF0895FC01918D228D2C
:10045000892F90E0805C9F4F821B91098F739927B1
:10046000089585EE93E00E94250221E0892B09F48E
:1004700020E0822F089580E090E0892B29F00E94EF
:10048000310281110C9400000895FC01A48DA80F85
:10049000B92FB11DA35ABF4F2C91848D90E00196C6
:1004A0008F739927848FA689B7892C93A089B189E6
:1004B0008C91837080648C93938D848D981306C087
:1004C0000288F389E02D80818F7D80830895EF92EB
:1004D000FF920F931F93CF93DF93EC0181E0888FFE
:1004E0009B8D8C8D98131AC0E889F989808185FFCE
:1004F00015C09FB7F894EE89FF896083E889F98970
:1005000080818370806480839FBF81E090E0DF9171
:10051000CF911F910F91FF90EF900895F62E0B8DC4
:1005200010E00F5F1F4F0F731127E02E8C8D8E117F
:100530000CC00FB607FCFACFE889F989808185FFE6
:10054000F5CFCE010E944502F1CFEB8DEC0FFD2FD0
:10055000F11DE35AFF4FF0829FB7F8940B8FEA89A1
:10056000FB8980818062CFCFCF93DF93EC01888DB0
:100570008823B9F0AA89BB89E889F9898C9185FD1E
:1005800003C0808186FD0DC00FB607FCF7CF8C91AC
:1005900085FFF2CF808185FFEDCFCE010E9445021D
:1005A000E9CFDF91CF91089520915B03260F332788
:1005B000331F21323105ECF42091A403FC0190E0BB
:1005C00080E0243069F082E00895A0915B032191DE
:1005D000AC01455C5C4FA40FB52FB11D2C93019667
:1005E000861798F380915B03680F60935B0380E04C
:1005F000089581E008951092A40381E08093A303FD
:1006000010927E0361E082E10E94B80061E083E124
:100610000E94B800E9EBF0E080818E7F80838081CA
:100620008D7F808388E48093B80085E48093BC004C
:1006300008951092E4031092E3031092E2031092E3
:10064000E1030E94FB028DE890E09093E003809329
:10065000DF038EE890E09093DE038093DD0308953E
:10066000CF93DF9391E090933A038823B9F0C09140
:10067000B800D091BA008091BC008A7B8093BC0006
:1006800060E082E10E94B80060E083E10E94B8006F
:100690000E94FB02D093BA00C093B800DF91CF91C3
:1006A00008950895E091E4038091E303E81730F49E
:1006B000F0E0E65EFC4F808190E008958FEF9FEFC1
:1006C00008959091E4038091E3032FEF3FEF981793
:1006D00048F4E92FF0E0E65EFC4F208130E09F5FB8
:1006E0009093E403C90108958091E3039091E4039A
:1006F000891B990B0895CF92DF92EF92FF920F938F
:100700001F93CF93DF937C01CB018A012091AA0331
:10071000222389F0EB016B01C40ED51ECC15DD053B
:1007200069F06991D701ED91FC910190F081E02D84
:10073000C7010995F3CF642F0E94D402C801DF914D
:10074000CF911F910F91FF90EF90DF90CF90089580
:10075000CF93DF931F92CDB7DEB769832091AA03B1
:100760002223F9F02091E103203258F021E030E01B
:10077000FC013383228390E080E00F90DF91CF91E2
:1007800008958091E203E82FF0E0E555FC4F998150
:1007900090838F5F8093E2038093E10381E090E098
:1007A000ECCF61E0CE0101960E94D402F7CFCF9248
:1007B000DF92EF92FF920F931F93CF93DF93FC0191
:1007C000C48121E02093AA03C093CB031092E203DB
:1007D0001092E1038385682B82E894E00E94A803CD
:1007E000D091E103D13208F092C00E9429016B013F
:1007F0007C018091A403811165C082E08093A403F1
:1008000081E08093A3038FEF8093A2031092A10352
:10081000D093A003ABEAB3E0E0E8F3E080E0D813C4
:1008200085C010927F0380917F03CC0FC82BC093AB
:100830007F0380917E03813009F07CC010927E039B
:100840000E9429016B017C0180917F038093BB0092
:100850008091A6039091A703A091A803B091A9034A
:10086000892B8A2B8B2B99F00E9429010091A603DA
:100870001091A7032091A8033091A9036C197D0959
:100880008E099F090617170728073907E0F180919D
:10089000BC0083FDD9CF85EC8093BC000E94290168
:1008A0006B017C018091A403823009F445C08091E2
:1008B000A2038F3F61F18091A203803241F18091C8
:1008C000A20325C08091A6039091A703A091A8033D
:1008D000B091A903892B8A2B8B2B09F48ACF0E9414
:1008E00029010091A6031091A7032091A80330913C
:1008F000A9036C197D098E099F0906171707280798
:10090000390708F076CF8091A5030E94300310923A
:10091000E2031092E1031092AA03DF91CF911F919D
:100920000F91FF90EF90DF90CF9008959D9191935C
:100930008F5F75CF85EEB0CF8091A6039091A7030E
:10094000A091A803B091A903892B8A2B8B2B09F4C2
:10095000A9CF0E9429010091A6031091A70320911D
:10096000A8033091A9036C197D098E099F09061708
:1009700017072807390708F095CFC5CFCF92DF9228
:10098000EF92FF920F931F938FB7F894C090D90303
:10099000D090DA03E090DB03F090DC038FBF00918E
:1009A0001603109117032091180330911903C01AF0
:1009B000D10AE20AF30A6091120370911303809145
:1009C00014039091150348EEC41643E0D406E104E5
:1009D000F104C8F06F5F7F4F8F4F9F4F60931203FA
:1009E00070931303809314039093150308511C4FC5
:1009F0002F4F3F4F009316031093170320931803B4
:100A000030931903C1CF1F910F91FF90EF90DF90AA
:100A1000CF9008954F925F926F927F928F929F92A4
:100A2000AF92BF92CF92DF92EF92FF920F931F93FC
:100A3000CF93DF934B015C0180910E0390910F03E4
:100A4000A0911003B091110388159905AA05BB0563
:100A500009F4C6C08CE3C82ED12CE12CF12CC501C1
:100A6000A70196010E94FE1B6093CD03CA01B90144
:100A7000A70196010E94FE1B6093CE03C501B4013D
:100A800020E13EE040E050E00E94FE1BCA01B901B7
:100A900028E130E040E050E00E94FE1B6093CF036D
:100AA000C501B40120E831E541E050E00E94FE1BA1
:100AB00069017A01CA01B9016C5F7F4F8F4F9F4F67
:100AC00027E030E040E050E00E94FE1B6F5F609343
:100AD000D003412C512C320140E004E610E0C0E983
:100AE000D1E0242F30E02E54384FF901E370FF2776
:100AF0003097F9F4C901B8010E94EA1B892B31F43F
:100B0000C901BE010E94EA1B892B99F48EE691E08F
:100B1000A0E0B0E0480E591E6A1E7B1ED301C20140
:100B2000AA27BB27C816D906EA06FB0638F04F5F8E
:100B3000D8CF8DE691E0A0E0B0E0ECCF4093D303B6
:100B4000C90164E670E00E94EA1BEC01C90160E99A
:100B500071E00E94EA1B309721F42097D9F40097A6
:100B6000C9F04DE651E060E070E0441A550A660AAB
:100B7000770AC418D508E608F708A0E7B1E020E036
:100B8000213069F43097E9F5209711F40097C9F501
:100B90004DE106C04EE651E060E070E0E6CF4C91DA
:100BA00050E070E060E031E0320FC416D506E60692
:100BB000F70640F0C41AD50AE60AF70A1196232F61
:100BC0003C30F1F62F5F2093D203C394C092D1033F
:100BD00080920E0390920F03A0921003B092110323
:100BE000DF91CF911F910F91FF90EF90DF90CF9009
:100BF000BF90AF909F908F907F906F905F904F903D
:100C000008954CE1CDCF089590E080E00895CF9312
:100C1000DF938EE00E941701EC0164E670E080E053
:100C200090E00E944E0181E090E0C634D105B4F01E
:100C300082E090E0CB3ED1058CF0CF3981E0D8073F
:100C400084F0CC3682E0D8077CF0C03783E0D80748
:100C500074F0CF3FD34074F090E080E0DF91CF910B
:100C6000089583E090E0FACF84E090E0F7CF85E04C
:100C700090E0F4CF86E090E0F1CF0E940706892B48
:100C8000E1F764E170E080E090E00E944E010E9494
:100C90000706892B91F708950F931F93CF938C012B
:100CA000C62F0E94D7036C2F6460C8010E94D7032F
:100CB0006C2F6B7FC8010E94D70383EC90E00197F3
:100CC000F1F7CF911F910F9108950F931F93CF9339
:100CD000DF938C01D62FC42F607F642B0E944C06BB
:100CE00080E1D89FB00111246C2BC801DF91CF9116
:100CF0001F910F910C944C0640E061E080EC94E071
:100D00000E9465068BE39FE10197F1F70895CF9369
:100D1000DF93CDB7DEB728970FB6F894DEBF0FBECE
:100D2000CDBF98E0E8E0F1E0DE01119601900D9270
:100D30009A95E1F79091C804961710F46FEF690F38
:100D4000262F30E0220F331F41E050E04C0F5D1F93
:100D5000240F351FF9016081680F606840E080EC66
:100D600094E028960FB6F894DEBF0FBECDBFDF919A
:100D7000CF910C94650641E00E94650681E090E009
:100D80000895CF92DF92EF92FF920F931F93CF932C
:100D9000DF930E9429016B017C018091A4038111E2
:100DA00063C081E08093A4038093A3039FEF90939B
:100DB000A2031092A1031092A00380937F0380915D
:100DC0007F03846480937F0380917E03813009F0E8
:100DD00088C010927E030E9429016B017C018091E2
:100DE0007F038093BB008091A6039091A703A091FD
:100DF000A803B091A903892B8A2B8B2BA1F00E9409
:100E000029010091A6031091A7032091A803309116
:100E1000A9036C197D098E099F0906171707280772
:100E2000390708F442C08091BC0083FDD8CF85EC1F
:100E30008093BC000E9429016B017C018091A40376
:100E4000813009F450C08091A10381116EC080915E
:100E5000A103E0E8F3E0AAE1B3E090E0981751F1D4
:100E600021912D939F5FFACF8091A6039091A703C4
:100E7000A091A803B091A903892B8A2B8B2B09F48D
:100E80008CCF0E9429010091A6031091A703209105
:100E9000A8033091A9036C197D098E099F090617D3
:100EA00017072807390708F078CF8091A5030E941B
:100EB000300380E01092E4038093E303813029F44F
:100EC00082E894E00E946103C82FD0E09E0170E0A8
:100ED00060E02115310559F1359527956F5F7F4FFA
:100EE000F8CF85EEA5CF8091A6039091A703A0919E
:100EF000A803B091A903892B8A2B8B2B09F49ECFD1
:100F00000E9429010091A6031091A7032091A80334
:100F10003091A9036C197D098E099F0906171707DF
:100F20002807390708F08ACFC0CF81E092CFEEEFD3
:100F3000F2E0DF0148E050E0461B570B241735076D
:100F40001CF411961C921E922F5F3F4F1296283070
:100F50003105A1F727E030E032972417350754F028
:100F6000BE0161707727718B608BD595C795215035
:100F70003109F2CFDF91CF911F910F91FF90EF9048
:100F8000DF90CF900895CF92DF92EF92FF920F9370
:100F90001F93CF93DF93EB017B0124E0E20EF11C62
:100FA0008B016C01C61AD70AC601800F911F0E94DF
:100FB0004D1BF80181938F01EE15FF05A9F7CE01B6
:100FC000DF91CF911F910F91FF90EF90DF90CF9025
:100FD0000895CF92DF92EF92FF920F931F93CF93DA
:100FE000DF93EB017B012CE0E20EF11C8B016C0125
:100FF000C61AD70AC601800F911F0E944D1BF80127
:1010000081938F01EE15FF05A9F7CE01DF91CF91F6
:101010001F910F91FF90EF90DF90CF900895FB010B
:1010200001900020E9F73197AF01461B570BDC0117
:10103000ED91FC910280F381E02D09948F929F92B3
:10104000AF92BF92EF92FF920F931F93CF93DF93D4
:10105000CDB7DEB7A1970FB6F894DEBF0FBECDBFF8
:101060007C01FA01CB0119A2223008F42AE08E019A
:101070000F5D1F4F822E912CB12CA12CBF01A50119
:1010800094010E94FE1BF901CA016A300CF5605DF3
:10109000D8016E938D01232B242B252B79F790E01B
:1010A00080E0109721F0BD01C7010E940F08A196B2
:1010B0000FB6F894DEBF0FBECDBFDF91CF911F9169
:1010C0000F91FF90EF90BF90AF909F908F900895F9
:1010D000695CDECFCF92DF92EF92FF920F931F9366
:1010E000CF93DF936B01770FEE08FF08F7FE1BC06D
:1010F000EC016DE20E9480018C0144275527BA0162
:101100004C195D096E097F092AE0CE010E941E0874
:10111000800F911FDF91CF911F910F91FF90EF9062
:10112000DF90CF9008952AE0B701A601DF91CF911B
:101130001F910F91FF90EF90DF90CF900C941E08BD
:10114000BF92CF92DF92EF92FF920F931F93CF93B4
:10115000DF93CDB7DEB72C970FB6F894DEBF0FBE86
:10116000CDBF7C010E947C0660E081E00E94870682
:101170006EE380EC94E00E94800160E082E10E94D6
:1011800087066CE380EC94E00E9480018CE08E9DE9
:1011900080018F9D100D1124025E1F4FB12CBE01E6
:1011A0006F5F7F4FC8010E94E9076B2D87E00E94A7
:1011B0008706C980DA80EB80FC802AE0B701A601AF
:1011C000F7FE0DC06DE280EC94E00E9480014427A0
:1011D0005527BA014C195D096E097F092AE080EC98
:1011E00094E00E941E08045F1F4FB39484E0B8127D
:1011F000D6CF2C960FB6F894DEBF0FBECDBFDF91D1
:10120000CF911F910F91FF90EF90DF90CF90BF9003
:101210000895CF93DF93BC0185EE93E00E940F0801
:10122000EC016CEA71E085EE93E00E940F088C0FF0
:101230009D1FDF91CF9108950C940F080F931F937A
:10124000CF93DF930EEF12E0CEE8D4E0F801819166
:1012500091918F01019791F46FEA71E085EE93E02F
:101260000E941C094C815D816881798185EE93E043
:101270000E9487018BEB91E00E9409092696F3E01A
:101280000E301F0719F7DF91CF911F910F9108952D
:10129000FF920F931F93CF93DF9300D000D0CDB771
:1012A000DEB78C010E947C0660E081E00E94870628
:1012B0006EE380EC94E00E94800160E082E10E9495
:1012C00087066CE380EC94E00E948001000F111F00
:1012D000000F111F0F5F1F4FF12CBE016F5F7F4F7B
:1012E000C8010E94C3076F2D86E00E9487060D305B
:1012F000110591F1F8F40530110541F1093011059E
:1013000041F10130110531F465EC71E080EC94E0BD
:101310000E941C090C5F1F4FF39484E0F812DDCF8C
:101320000F900F900F900F90DF91CF911F910F9121
:10133000FF9008950531110591F00931110591F0E3
:101340000131110539F764EE71E0E0CF6EEC71E028
:10135000DDCF65ED71E0DACF6CED71E0D7CF6EEEE9
:1013600071E0D4CF67EF71E0D1CFCF93C82F0E9447
:101370007C0660E087E00E9487066EEF71E0C11195
:1013800002C062E072E080EC94E00E941C0960E020
:1013900081E00E9487066EE380EC94E00E94800169
:1013A00060E082E10E9487066CE380EC94E0CF91DC
:1013B0000C948001CF93DF93EC010E947C0661E0E6
:1013C00083E00E94870668E072E080EC94E00E946F
:1013D0001C0961E086E0CA30D1050CF085E00E946E
:1013E0008706BE0180EC94E00E946A0861E088E014
:1013F0000E9487066AE072E080EC94E0DF91CF9172
:101400000C941C09CF93DF93EC010E947C0660E0F2
:1014100083E00E9487066CE072E080EC94E00E941A
:101420001C0961E087E00E9487064C815D8168812C
:10143000798180EC94E0DF91CF910C948701CF9378
:10144000DF938091BE049091BF048F3F910521F4FA
:101450001092BF041092BE048FE00E941701EC01AD
:101460000E947C0660E085E00E9487066FE072E0E3
:1014700080EC94E00E941C0960E08CE00E948706EA
:101480006091BE047091BF0480EC94E00E946A08F1
:1014900061E085E00E94870666E172E080EC94E0FE
:1014A0000E941C0961E08FE00E948706BE01DD0FEB
:1014B000880B990B0E94541A20E030E040E05FE373
:1014C0000E948F1A0E94B41B80EC94E00E946A086C
:1014D00062E085E00E94870660E272E080EC94E0C2
:1014E0000E941C0963E083E00E94870669E272E0C3
:1014F00080EC94E0DF91CF910C941C099F92AF9205
:10150000BF92CF92DF92EF92FF920F931F93CF93F0
:10151000DF935C017B018B01D0E0C0E0F80191908A
:101520008F016501CC0EDD1EC6010E944D1B981671
:1015300021F0692DC6010E94551B2196C430D105AA
:1015400069F7C701DF91CF911F910F91FF90EF9045
:10155000DF90CF90BF90AF909F9008959F92AF92F1
:10156000BF92CF92DF92EF92FF920F931F93CF9390
:10157000DF935C017B018B01D0E0C0E0F80191902A
:101580008F016501CC0EDD1EC6010E944D1B981611
:1015900021F0692DC6010E94551B2196CC30D10542
:1015A00069F7C701DF91CF911F910F91FF90EF90E5
:1015B000DF90CF90BF90AF909F9008950F931F93AF
:1015C000CF93DF93EC0188819981009759F02A81AC
:1015D0003B812617370730F081E0DF91CF911F91D3
:1015E0000F9108958B016F5F7F4F0E945F1D0097E1
:1015F00059F0998388831B830A832C813D81232B97
:1016000059F7FC011082E8CF80E0E7CFEF92FF921C
:101610000F931F93CF93DF936115710541F480E021
:10162000DF91CF911F910F91FF90EF900895411599
:101630005105B1F07B01EC010C811D81040F151FD8
:10164000B8010E94DE0A882351F3288139818C81F8
:101650009D81B701820F931F0E94251E1D830C835D
:1016600081E0DECFCF93DF93EC01888199810097F1
:1016700011F00E94D61C198218821D821C821B82C6
:101680001A82DF91CF910895CF93DF93EC01FB0194
:1016900001900020E9F73197AF01461B570B0E94DC
:1016A000060B811103C0CE010E94320BCE01DF91E7
:1016B000CF910895CF93DF93EC01FB0144815581D5
:1016C000608171810E94060B811103C0CE010E94CE
:1016D000320BCE01DF91CF910895EF92FF920F93DD
:1016E0001F93CF93DF93EC017B018A01BA010E9423
:1016F000DE0A81110BC0CE010E94320BCE01DF91B8
:10170000CF911F910F91FF90EF9008951D830C834F
:10171000B701888199810E94251EF0CFEF92FF9238
:101720000F931F93CF93DF93CDB7DEB762970FB6BA
:10173000F894DEBF0FBECDBF8C01CB01F801118242
:10174000108213821282158214824AE09E012F5F5A
:101750003F4F7901B9010E94EC19F7010190002077
:10176000E9F73197AF014E195F09B701C8010E942F
:101770006D0B62960FB6F894DEBF0FBECDBFDF9142
:10178000CF911F910F91FF90EF900895FC0111826E
:1017900010821382128215821482FB0101900020B4
:1017A000E9F73197AF01461B570B0C946D0BFC0109
:1017B00080819181009711F00C94D61C089585EDDD
:1017C0008093BC008091A6039091A703A091A803E9
:1017D000B091A9030796A11DB11D23E0B695A79569
:1017E000979587952A95D1F72091BC0024FD03C0D9
:1017F0001092A40308954091A6035091A70360910D
:10180000A8037091A903452B462B472B69F300973A
:10181000A105B10541F02AE22A95F1F700C0019730
:10182000A109B109E1CF8091A5030C9430038F92F7
:101830009F92AF92BF92CF92DF92EF92FF920F935F
:10184000CF93DF93CDB7DEB7EA970FB6F894DEBF3C
:101850000FBECDBF4B015C017A01B901CE018F965D
:101860000E948E0BB701CE0189960E948E0B1CA29E
:101870001BA21EA21DA218A61FA22AE0CE0101963D
:101880007C01AC01C501B4010E94F719F701019078
:101890000020E9F73197AF014E195F09B701CE017A
:1018A00083960E946D0B68E372E0C7010E94C60B2D
:1018B000BE016D5D7F4FC7010E945A0B60E472E06C
:1018C0000E94440BBE01675D7F4F0E945A0B62E489
:1018D00072E00E94440BBE01615D7F4F0E945A0B73
:1018E00060E472E00E94440B1EAA1DAA18AE1FAA53
:1018F0001AAE19AE6E01E5E3CE0ED11C8C159D0516
:1019000059F0FC01608171816115710529F04481F4
:101910005581C6010E946D0BC7010E94D70BCE01F5
:1019200083960E94D70BCE0189960E94D70BCE01D9
:101930008F960E94D70B43E050E064E472E00111FF
:1019400004C044E050E068E472E0C6010E94060B67
:1019500049AD5AAD6DA97EA985EE93E00E9487013D
:101960006CEA71E085EE93E00E940F08C6010E94C8
:10197000D70BEA960FB6F894DEBF0FBECDBFDF914E
:10198000CF910F91FF90EF90DF90CF90BF90AF90ED
:101990009F908F9008952F923F924F925F926F92F7
:1019A0007F928F929F92AF92BF92CF92DF92EF92EF
:1019B000FF920F931F93CF93DF93CDB7DEB7659759
:1019C0000FB6F894DEBF0FBECDBF2DB63EB60E9457
:1019D000C10690E080E00E944D1B90E09093BF0410
:1019E0008093BE0485EE93E00E942502892B09F4C2
:1019F000B4C08DB69EB66EEA71E0CE010D960E941F
:101A0000C60B0E94D70197FD0FC08D30910561F084
:101A100089831A8241E050E0BE016F5F7F4FCE01A3
:101A20000D960E94060BEDCFC988DA888601015019
:101A300011098DB79EB78C199D090FB6F8949EBFFA
:101A40000FBE8DBFADB7BEB711967D01C114D104D5
:101A500051F06D857E85A801CD010E942C1EF701F5
:101A6000E00FF11F1082F7018081843509F06CC00E
:101A700087010C5F1F4FCE0107969C8B8B8BC80193
:101A80008E199F098C159D050CF05EC05801E6E08B
:101A9000F0E0412C512C3201AAE0B0E0A301920108
:101AA0000E94631BD5014D905D01042C000C55086C
:101AB00066087708460E571E681E791E319761F733
:101AC000F8013796B12CA12C87E090E0BAE0BA9DDE
:101AD0009001BB9D300D112441915901A40EB11C00
:101AE00047FDBA9401968B30910581F7E1E0ED8BCB
:101AF000D8011C968C918D3409F01D8A8DE190E0FF
:101B00000E944D1B90E00C96909301018093000180
:101B1000EB89FC8926E011922A95E9F749825A82DD
:101B20006B827C82BE82AD824D894F83BE016F5F26
:101B30007F4F0E94AE0A609100018DE190E00E940B
:101B4000551B025F1F4F9BCFCE010D960E94D70BF6
:101B50000FB6F8949EBE0FBE8DBE8FE00E94170197
:101B6000BC01990F880B990B0E94541A20E030E0B9
:101B700040E05FE30E948F1A0E94B41B8B018091AA
:101B8000CC0361E081111EC0E8EBF0E08491E4EA4F
:101B9000F0E0E490E0E9F0E0F490FF2091F08111B2
:101BA0000E948F00EF2DF0E0EE0FFF1FE859FF4F6E
:101BB000A591B491EC91EE2221F061E082E00E94C7
:101BC000B80060E083E00E94B8002EE1E22EF12C24
:101BD000BE016F5F7F4FC7010E94E9078885882398
:101BE000E1F061E08BE00E94B80080910A039091DF
:101BF0000B03019709F004C161E08CE00E94B8007A
:101C00001092FB021092FA0261E088E00E94B80094
:101C100061E084E00E94B80084C08CE0E80EF11C12
:101C200096E6E916F104A1F68EEFE82E82E0F82E92
:101C30009EE0C92E93E0D92ED7018D919D917D0113
:101C4000019721F461E082E00E94B800CE14DF0425
:101C500099F70E94BE042B013C010E940A05809165
:101C6000D003B4E08B9FC0011124BE016F5F7F4F92
:101C700001960E94C30789819A8164E670E00E9400
:101C8000EA1B7B016C01AB80BC80C301B2010E94E6
:101C90000A058091CF038E151F0409F00CF495C03E
:101CA000C50164E670E00E94EA1B7B016C01C30180
:101CB000B2010E940A058091CF038E151F04ACF07B
:101CC000C301B2010E940A058091CF038E151F0443
:101CD00009F08EC0C301B2010E940A058091CE03B3
:101CE0008C151D0411F00CF083C061E088E00E94A7
:101CF000B80060E08BE00E94B80060E08CE00E94D9
:101D0000B8008091FC029091FD02873491050CF49B
:101D100071C060E084E00E94B8001092FD02109251
:101D2000FC028091BE049091BF0461E0081719077E
:101D30000CF499C09C012C5F3F4F801791070CF069
:101D40006EC0201731070CF46DC060E089E00E947E
:101D5000B80060E085E00E94B80061E087E00E9482
:101D6000B8008091F6029091F702893291050CF447
:101D70006FC061E086E00E94B8001092F7021092F6
:101D8000F60261E070E080E090E00E944E010FB644
:101D9000F8943EBE0FBE2DBE65960FB6F894DEBF1A
:101DA0000FBECDBFDF91CF911F910F91FF90EF90AC
:101DB000DF90CF90BF90AF909F908F907F906F906B
:101DC0005F904F903F902F900895C301B2010E9401
:101DD0000A058091CF038E151F0451F4C301B2018F
:101DE0000E940A058091CE038C151D040CF058CF7B
:101DF00060E07CCF01969093FD028093FC0291CF2E
:101E00008091FA029091FB028333910514F060E017
:101E1000F4CE01969093FB028093FA02F5CE201740
:101E20003107E4F460E089E00E94B80061E087E0F7
:101E30000E94B8008091F6029091F70289329105D4
:101E40003CF061E086E00E94B80061E085E093CF5D
:101E500001969093F7028093F60293CF8017910733
:101E600009F08FCF60E089E00E94B80060E085E073
:101E70000E94B80060E086E00E94B80060E087E061
:101E80000E94B8007ECFAF92BF92CF92DF92EF92C6
:101E9000FF920F931F93CF93DF93CDB7DEB72C97AD
:101EA0000FB6F894DEBF0FBECDBF5C010E947C066A
:101EB00060E083E00E9487066DE472E080EC94E0CD
:101EC0000E941C0961E087E00E94870663E672E0D9
:101ED00080EC94E00E941C0987E0F82ED12CC12CE4
:101EE0009AE0E92E0E940706049779F1C601E89E60
:101EF0006001E99ED00C112410E000E00E9407066A
:101F00000497F9F062E08F2D0E94870668E672E080
:101F100080EC94E00E941C090E9407068130910524
:101F2000C1F12CF4892B51F70E94CB0CE7CF823002
:101F3000910509F43FC0039709F70E943D06C00EC2
:101F4000D11EF3949BE0F912CDCF2CE02A9DC00165
:101F50002B9D900D1124BE016F5F7F4F4E960E9406
:101F6000E90781E02D813E812C153D0509F080E0D7
:101F70002C960FB6F894DEBF0FBECDBFDF91CF9188
:101F80001F910F91FF90EF90DF90CF90BF90AF9097
:101F900008950930110514F40F5F1F4F61E08F2D74
:101FA0000E948706B80180EC94E00E946A080E94B3
:101FB0003D06A4CF0115110589F301501109EECF9B
:101FC0001F920F920FB60F9211242F933F938F936E
:101FD0009F93AF93BF938091D9039091DA03A0911F
:101FE000DB03B091DC033091D40323E0230F2D37C2
:101FF00058F50196A11DB11D2093D4038093D903F8
:102000009093DA03A093DB03B093DC038091D503B4
:102010009091D603A091D703B091D8030196A11D4A
:10202000B11D8093D5039093D603A093D703B093AB
:10203000D803BF91AF919F918F913F912F910F90B6
:102040000FBE0F901F90189526E8230F0296A11D32
:10205000B11DD2CF1F920F920FB60F9211242F9362
:102060003F934F935F936F937F938F939F93AF9320
:10207000BF93EF93FF9385EE93E00E944502FF919B
:10208000EF91BF91AF919F918F917F916F915F91F0
:102090004F913F912F910F900FBE0F901F90189569
:1020A0001F920F920FB60F9211242F938F939F932D
:1020B000EF93FF93E091F503F091F6038081E091B7
:1020C000FB03F091FC0382FD1BC090818091FE0315
:1020D0008F5F8F732091FF03821741F0E091FE0321
:1020E000F0E0EB51FC4F958F8093FE03FF91EF9151
:1020F0009F918F912F910F900FBE0F901F90189569
:102100008081F4CF1F920F920FB60F9211242F935C
:102110003F934F935F936F937F938F939F93AF936F
:10212000BF93EF93FF938091B900887F803609F4C5
:102130004AC0F0F5883209F4A7C018F5803109F4D7
:102140009BC0B8F4882309F4F9C0883009F494C01E
:10215000FF91EF91BF91AF919F918F917F916F917F
:102160005F914F913F912F910F900FBE0F901F9055
:102170001895883109F488C0803251F78093A20302
:1021800014C0803409F49DC040F48033B9F388331F
:10219000F9F68093A20385ECB0C0803509F485C0C0
:1021A000883509F496C0883499F60E94DF0BD0CFA9
:1021B000883909F48CC038F5883729F050F488360E
:1021C00011F0803729F683E08093A40310927D03F9
:1021D00057C0883809F47BC0803919F0803809F07D
:1021E000B7CF80917D03803208F071C0E0917D030C
:1021F00081E08E0F80937D038091BB00F0E0E35A75
:10220000FC4F80833DC0803B39F0E0F4803A09F414
:1022100079C0883A09F09CCF84E08093A40310929F
:102220005C0310925B03E091DF03F091E0030995FA
:1022300080915B0381110FC081E080935B0310925A
:102240003B0309C0803C09F4A6CF883C09F4A3CF26
:10225000883B09F07DCFE0915C0381E08E0F809395
:102260005C03F0E0E55CFC4F80818093BB009091C3
:102270005C0380915B0329C080917F038093BB0046
:1022800085EC8093BC0064CF9091A1038091A00362
:10229000981758F5E091A10381E08E0F8093A10378
:1022A000F0E0E058FC4F8081E9CFE091A10381E0AC
:1022B0008E0F8093A1038091BB00F0E0E058FC4FAB
:1022C00080839091A1038091A0039817C8F285E8BC
:1022D000D8CFE091A10381E08E0F8093A10380917C
:1022E000BB00F0E0E058FC4F80838091A303811194
:1022F0005CCF81E080937E0384EA8093BC001092DF
:10230000A40326CF85EC8093BC001092A403809197
:102310007D03803230F4E0917D03F0E0E35AFC4F1E
:10232000108260917D0370E0E091DD03F091DE03A7
:102330008DE593E0099510927D030ACF1092A203D8
:1023400034CFE5EEF3E01382128288EE93E0A0E052
:10235000B0E084839583A683B78320E831E031839E
:10236000208325EC30E03587248724EC30E0378764
:10237000268720EC30E0318B208B21EC30E0338B52
:10238000228B22EC30E0358B248B26EC30E0378B2F
:10239000268B118E128E138E148EE2E8F4E01382D7
:1023A000128284839583A683B78382E991E0918327
:1023B00080830E941903E0ECF4E01382128284EA25
:1023C00091E09183808381E2848384E1818784E04A
:1023D000828713860E94190390E080E00E944D1BC3
:1023E00090E09093BF048093BE046AE672E08EE8AA
:1023F00094E00E94C60B60E772E084E994E00E94DA
:10240000C60B6FE772E08AE994E00E94C60B63E8AE
:1024100072E080EA94E00E94C60B60E972E086EA0E
:1024200094E00E94C60B6AE972E08CEA94E00E9494
:10243000C60B6DE972E082EB94E00E94C60B65EA80
:1024400072E088EB94E00C94C60BCF93DF93CDB78A
:10245000DEB7C45AD1090FB6F894DEBF0FBECDBFA8
:10246000789484B5826084BD84B5816084BD85B56F
:10247000826085BD85B5816085BD80916E0081607B
:1024800080936E0010928100809181008260809321
:102490008100809181008160809381008091800023
:1024A0008160809380008091B10084608093B1004E
:1024B0008091B00081608093B00080917A00846048
:1024C00080937A0080917A00826080937A00809174
:1024D0007A00816080937A0080917A00806880938E
:1024E0007A001092C100E091F503F091F60362E0EA
:1024F000F62EF082E091F103F091F2031082E09168
:10250000F303F091F4038FEC80831092FD03E091CC
:10251000F903F091FA0386E08083E091F703F091EC
:10252000F803808180618083E091F703F091F803E4
:10253000808188608083E091F703F091F8038081C7
:1025400080688083E091F703F091F80380818F7DAC
:1025500080838091C50488608093C50474E0E72E71
:10256000E092C80462E370E080E090E00E944E01D7
:102570006091CB0480EC94E00E94D70368EE73E096
:1025800080E090E00E944E0160E380EC94E00E94C5
:102590004C060BE416E4C8010197F1F760E380EC08
:1025A00094E00E944C06C8010197F1F760E380ECCB
:1025B00094E00E944C0683E592E00197F1F760E217
:1025C00080EC94E00E944C066091C504606240E09B
:1025D00080EC94E00E946506E092C60440E06CE066
:1025E00080EC94E00E9465060E947C06F092C7048D
:1025F00040E066E080EC94E00E94650640E062E026
:1026000080EC94E00E9465068BE39FE10197F1F76F
:102610000E9419030E94190361E082E00E94E60013
:1026200061E083E00E94E60061E084E00E94E60051
:1026300061E085E00E94E60061E086E00E94E6003D
:1026400061E087E00E94E60061E088E00E94E60029
:1026500061E089E00E94E60060E08AE00E94E60016
:1026600061E08BE00E94E60061E08CE00E94E60001
:102670008CE0E0E1F1E0DE01AF59BF4F01900D9237
:102680008A95E1F78CE0ECE1F1E0DE01AB5ABF4F57
:1026900001900D928A95E1F78CE0E8E2F1E0DE012D
:1026A000A75BBF4F01900D928A95E1F78CE0E4E3C0
:1026B000F1E0DE01DD9601900D928A95E1F78CE064
:1026C000E0E4F1E0DE01D19601900D928A95E1F708
:1026D0008CE0ECE4F1E0DE01959601900D928A9594
:1026E000E1F7BE016F597F4F8EE190E00E94AE0A84
:1026F000BE016B5A7F4F8AE290E00E94AE0ABE0193
:10270000675B7F4F86E390E00E94AE0ABE01635C88
:102710007F4F82E490E00E94AE0ABE016F5C7F4F63
:102720008EE490E00E94AE0ABE016B5D7F4F8AE5A9
:1027300090E00E94AE0A8091580190915901A091B9
:102740005A01B0915B01C357DF4F88839983AA83F5
:10275000BB83CD58D04080915C0190915D01A091E8
:102760005E01B0915F01C757DF4F88839983AA83C9
:10277000BB83C958D0408091600190916101A091C4
:102780006201B0916301CB57DF4F88839983AA839D
:10279000BB83C558D0408091640190916501A091A0
:1027A0006601B0916701CF57DF4F88839983AA8371
:1027B000BB83C158D0408091680190916901A0917C
:1027C0006A01B0916B01C358DF4F88839983AA8354
:1027D000BB83CD57D040EB961FAE1EAEEB9781E08A
:1027E00090E0ED969FAF8EAFED9780916C01909148
:1027F0006D01A0916E01B0916F01E9968CAF9DAF14
:10280000AEAFBFAFE997BE0163577F4F81E090E065
:102810000E947E0ABE0167577F4F85E090E00E94CC
:102820007E0ABE016B577F4F89E090E00E947E0ACE
:10283000BE016F577F4F8DE090E00E947E0ABE017F
:1028400063587F4F81E190E00E947E0ABE01675885
:102850007F4F85E190E00E947E0ABE016B587F4F5A
:1028600089E190E00E947E0A64E670E080E090E0FA
:102870000E944E010E94C1060E94CB0C0E941F0ABA
:1028800063E081E00E9487066EE380EC94E00E94A2
:10289000800163E082E10E9487066CE380EC94E0B3
:1028A0000E94800123E030E0CF56DF4F3983288338
:1028B000C159D0408FE00E9417018C0161E08FE088
:1028C0000E948706B801110F880B990B0E94541AB9
:1028D00020E030E040E05FE30E948F1A0E94B41BCA
:1028E00080EC94E00E946A080E941E090E9407067C
:1028F00081309105E9F12CF4892BE1F60E94CB0C93
:10290000D9CF8230910509F452C0039799F6CF567A
:10291000DF4F88819981C159D040039709F49AC04B
:1029200090E080E00E944D1B90E0843691050CF011
:1029300055C09093BF048093BE048091BE049091D3
:10294000BF040E94DA090091BE041091BF040E94E6
:102950000706049709F456C00E94070681309105C6
:1029600009F467C0F4F5892B91F70E94CB0CEFCFE7
:102970000E941F0A62E081E00E9487066EE380ECFD
:1029800094E00E94800162E082E10E9487066CE38D
:1029900080EC94E00E9480010E943D0682E090E07D
:1029A000CF56DF4F99838883C159D04083CF0E948F
:1029B0001F0A63E081E00E9487066EE380EC94E0EA
:1029C0000E94800163E082E10E9487066CE380EC54
:1029D00094E00E9480010E943D0664CF84E190E073
:1029E000A8CF8230910581F1039709F0B0CF109301
:1029F000BF040093BE04602F90E080E00E94551B4E
:102A00000E943D060E941F0A62E081E00E94870644
:102A10006EE380EC94E00E94800162E082E10E941B
:102A200087066CE380EC94E00E9480010E943D06E2
:102A300041CF0336110514F40F5F1F4FC8010E94E8
:102A4000DA090E943D0683CF10161106BCF701502B
:102A50001109F4CF90E080E00E94A008F12CE12C55
:102A60000E940706049709F495C40E941E090E945B
:102A700007068230910599F083309105C1F00197E6
:102A800079F7E114F10419F091E0E91AF1080E94D4
:102A90007C06C7010E94A0080E943D06E1CF2EE0FF
:102AA000E216F104A4F73FEFE31AF30AF0CF0E9415
:102AB0003D062CE02E9D40012F9D900C11244EE1EF
:102AC000840E911CBE01675E7F4FC4010E94E9071E
:102AD0008F8D882309F4A5C3C7010E94430FCD56EB
:102AE000DF4F8883C359D040882309F489C3BE01CE
:102AF000635F7F4FC4010E94E907AC886EEF71E00D
:102B0000A11002C062E072E0CE0101960E94C60BE5
:102B1000CE0101960E94020ACE0101960E94D70BB7
:102B200060E081E00E9487066EE380EC94E00E9402
:102B3000800160E082E10E9487066CE380EC94E013
:102B40000E948001312C212C0E940706049709F471
:102B500050C30E94070681309105D9F12CF4892BCE
:102B600099F70E94CB0CF0CF8230910509F460C038
:102B7000039751F7B10185EE93E00E946A0881E066
:102B80002816310409F48EC290E080E00E944809C2
:102B9000712C612C0E940706049709F454C20E940C
:102BA00007068230910509F46FC08330910509F45E
:102BB00074C0019779F76114710419F091E0691AF2
:102BC00071080E947C06C3010E9448090E943D06CC
:102BD000E1CF0E947C06BE01635F7F4FC4010E946B
:102BE000E9076EEF71E0A11002C062E072E0CE0171
:102BF00001960E94C60BCE0101960E94020ACE01E8
:102C000001960E94D70B60E081E00E9487066EE388
:102C100080EC94E00E94800160E082E10E948706DF
:102C20006CE380EC94E00E9480010E943D068ACF14
:102C30000E947C066EEF71E0A11002C062E072E0BB
:102C4000CE0101960E94C60BCE0101960E94020A97
:102C5000CE0101960E94D70B61E081E00E948706B9
:102C60006EE380EC94E00E94800161E082E10E94CA
:102C700087066CE380EC94E00E9480010E943D0690
:102C800022242394312C60CF26E0621671040CF0CC
:102C900098CF3FEF631A730A94CF2301440C551C5D
:102CA000440C551C4FEF441A540ABE016F587F4F15
:102CB000C2010E94C307BE0163597F4FC2010E9437
:102CC000C3070E947C0660E083E00E94870662E002
:102CD00072E080EC94E00E941C0961E085E00E94B3
:102CE000870662E472E080EC94E00E941C0960E0D8
:102CF0008CE00E9487066EEF71E080EC94E00E9409
:102D00001C0961E08EE00E94870662E472E080ECBC
:102D100094E00E941C09AF968EAD9FADAF9764E61C
:102D200070E00E94EA1BC956DF4F6883C759D04044
:102D3000C856DF4F7883C859D040CB56DF4F8883C1
:102D4000C559D040CA56DF4F9883C659D04061E07C
:102D500083E00E948706C956DF4F6881C759D0407B
:102D6000C856DF4F7881C859D04080EC94E00E946B
:102D70006A0861E086E00E948706CB56DF4F6881D3
:102D8000C559D040CA56DF4F7881C659D04080EC33
:102D900094E00E946A08E1968EAD9FADE19764E6EB
:102DA00070E00E94EA1BC556DF4F6883CB59D040C4
:102DB000C456DF4F7883CC59D040C756DF4F888345
:102DC000C959D040C656DF4F9883CA59D04061E0F8
:102DD0008CE00E948706C556DF4F6881CB59D040F2
:102DE000C456DF4F7881CC59D04080EC94E00E94EB
:102DF0006A0861E08FE00E948706C756DF4F68814E
:102E0000C959D040C656DF4F7881CA59D04080ECAE
:102E100094E00E946A08D12CC12C0E9407060497F6
:102E200009F4D1CEC556DF4F0881CB59D040C456E6
:102E3000DF4F1881CC59D0402CE0B22E82E0C8166A
:102E4000D10461F1C756DF4F0881C959D040C65639
:102E5000DF4F1881CA59D0409FE0B92E93E0C916C0
:102E6000D104E1F0CB56DF4F0881C559D040CA5696
:102E7000DF4F1881C659D04036E0B32E21E0C2168C
:102E8000D10461F083E0B82EC956DF4F0881C759DD
:102E9000D040C856DF4F1881C859D040C6018D7F39
:102EA000CD55DF4F99838883C35AD04091E09B0D65
:102EB000CC56DF4F9883C459D0400E940706049730
:102EC00009F459C062E08B2D0E94870668E672E023
:102ED00080EC94E00E941C090E9407068130910555
:102EE00021F12CF4892B49F70E94CB0C3DC0823094
:102EF000910509F449C0039701F792E0C916D1047E
:102F000009F45BC023E0C216D10409F45DC031E0CE
:102F1000C316D10409F490C0C156DF4F198308834A
:102F2000CF59D0400E943D0626C0CD55DF4F888145
:102F30009981C35AD040892B21F40731110524F01F
:102F400008C00B3311052CF40F5F1F4F0A30110519
:102F50006CF161E08B2D0E948706B80180EC94E053
:102F60000E946A080E943D06CD56DF4F2881C35952
:102F7000D0402111A2CF3FEFC31AD30A44E0C416B8
:102F8000D10409F04ACF1FCE61E08B2D1016110637
:102F90002CF4015011090A301105ECF60E94870645
:102FA00066E672E080EC94E00E941C0961E0CC5679
:102FB000DF4F8881C459D040CECFC356DF4F19832D
:102FC0000883CD59D040AECF44E6C156DF4F2881AB
:102FD0003981CF59D040429FC001439F900D1124A9
:102FE000CF55DF4F28813981C15AD040820F931FBE
:102FF0009A838983C356DF4F28813981CD59D040C8
:10300000429FC001439F900D1124080F191F1C837C
:103010000B83BE016F5F7F4FC2010E947E0A0E9438
:103020007C0661E085E00E9487066EEA72E080EC33
:1030300094E00E941C0976CFCF55DF4F1983088397
:10304000C15AD0406FCF62E370E080E090E00E9410
:103050004E016EEF71E0A11002C062E072E0CE019D
:1030600001960E94C60BCE0101960E94020ACE0173
:1030700001960E94D70B60E081E00E9487066EE314
:1030800080EC94E00E94800160E082E10E9487066B
:103090006CE380EC94E00E9480010E943D060E9457
:1030A0003D0652CDBE01635F7F4FC4010E94E90718
:1030B0000E94BE042B013C010E940A050091CF032F
:1030C00084E6089F80011124C301B2010E940A0511
:1030D0008091CE03800F912F911DEC894D855E85E7
:1030E0006F85788929893A89E11152C011E01887E2
:1030F00049835A836B837C833E832D832B892F8363
:103100009A8789878F89988D9C878B8787EB92E038
:103110000E9409091093CC03BE016F5F7F4FC40169
:103120000E94AE0AA884C301B2010E940A05C090A1
:10313000CE03D12CC301B2010E940A054091CF03F6
:1031400050E06D857E858F85988901E096010E940B
:10315000170C0E947C066EEF71E0A11002C062E0C5
:1031600072E0CE0101960E94C60BCE0101960E942C
:10317000020ACE0101960E94D70B61E081E00E9415
:1031800087066EE380EC94E00E94800161E07DCFD1
:1031900018861F8249835A836B837C833E832D83E9
:1031A0002B892F832D893E893A8729879C878B8796
:1031B0008FEB92E00E9409091092CC03BE016F5F71
:1031C0007F4FC4010E94AE0AA884C301B2010E94CD
:1031D0000A05C090CE03D12CC301B2010E940A059A
:1031E0004091CF0350E06D857E858F85988900E002
:1031F000ADCF64E670E080E090E00E944E0130CCFC
:103200000E947C0661E083E00E94870667EC72E022
:1032100080EC94E00E941C096CE271E080E090E098
:10322000ECCFC7010E94430F882309F4A2C0BE015E
:10323000635F7F4FC4010E94E907BC880E94BE04FF
:103240002B013C010E940A05C090CF0394E6C99E61
:1032500080011124C301B2010E940A05C090CE036F
:10326000C00ED12ED11C8B2D0E94B509332433946E
:103270000E940706049709F4F3CB0E940706009703
:1032800009F474C00397A1F7BE01635F7F4FC401C7
:103290000E94E9072C894D855E856F85788989892B
:1032A0009A89211134C0388649835A836B837C8381
:1032B0009E838D838B898F83DA86C9868F89988DCB
:1032C0009C878B8787EB92E00E940909BE016F5FA4
:1032D0007F4FC4010E94AE0A1885C301B2010E944B
:1032E0000A05A090CE03B12CC301B2010E940A05C9
:1032F0004091CF0350E06D857E858F85988901E0F0
:1033000095010E94170C812F0E94B509B1CF188634
:103310001F8249835A836B837C839E838D838B8931
:103320008F838D899E899A878987DC86CB868EEDEF
:1033300092E00E940909BE016F5F7F4FC4010E94A5
:10334000AE0A1885C301B2010E940A05A090CE03FF
:10335000B12CC301B2010E940A054091CF0350E095
:103360006D857E858F85988900E0CACF0E94CB0C41
:103370007FCF0E947C0661E083E00E94870666EEB4
:1033800072E080EC94E00E941C0964EF71E080E040
:1033900090E033CF62E370E080E090E00E944E0165
:1033A0000E941F0A63E081E00E9487066EE380ECC2
:1033B00094E00E94800163E031CBCF93DF93CEEBAA
:1033C000D4E02697CE010E94D70B84E0CE38D807F0
:1033D000C1F7DF91CF910895BB274A3031F499238B
:1033E00022F4BDE2909581959F4F0C94291ABB273A
:1033F0002A3051F4992342F4BDE29095809570955E
:1034000061957F4F8F4F9F4F0C94071ABB27FA018E
:10341000A62F6217710581059105330B30FB66F00D
:10342000AA27660F771F881F991FAA1FA21710F0DF
:10343000A21B63953850A9F7A05DAA3308F0A95DD7
:10344000A19336F7B111B1931082CA010C94421ABC
:10345000BB27FB015527AA27880F991FAA1FA4176E
:1034600010F0A41B83955051B9F7A05DAA3308F062
:10347000A95DA193009779F7B111B1931192CB0196
:103480000C94421ADC01FC01672F71917723E1F75C
:10349000329704C07C916D9370836291AE17BF0721
:1034A000C8F30895E89409C097FB3EF49095809581
:1034B000709561957F4F8F4F9F4F9923A9F0F92FFA
:1034C00096E9BB279395F695879577956795B79578
:1034D000F111F8CFFAF4BB0F11F460FF1BC06F5F5E
:1034E0007F4F8F4F9F4F16C0882311F096E911C070
:1034F000772321F09EE8872F762F05C0662371F091
:1035000096E8862F70E060E02AF09A95660F771FA4
:10351000881FDAF7880F9695879597F908950E9486
:10352000A21A0C94131B0E94051B38F00E940C1B5E
:1035300020F0952311F00C94FC1A0C94021B11241A
:103540000C94471B0E94241B70F3959FC1F3950FA9
:1035500050E0551F629FF001729FBB27F00DB11D17
:10356000639FAA27F00DB11DAA1F649F6627B00DA7
:10357000A11D661F829F2227B00DA11D621F739F90
:10358000B00DA11D621F839FA00D611D221F749F9E
:103590003327A00D611D231F849F600D211D822FE5
:1035A000762F6A2F11249F5750409AF0F1F088230C
:1035B0004AF0EE0FFF1FBB1F661F771F881F915039
:1035C0005040A9F79E3F510580F00C94FC1A0C94D2
:1035D000471B5F3FE4F3983ED4F386957795679554
:1035E000B795F795E7959F5FC1F7FE2B880F911D63
:1035F0009695879597F9089597F99F6780E870E009
:1036000060E008959FEF80EC089500240A94161658
:10361000170618060906089500240A9412161306C0
:10362000140605060895092E0394000C11F488234E
:1036300052F0BB0F40F4BF2B11F460FF04C06F5F6A
:103640007F4F8F4F9F4F089557FD9058440F551F40
:1036500059F05F3F71F04795880F97FB991F61F014
:103660009F3F79F087950895121613061406551F8B
:10367000F2CF4695F1DF08C0161617061806991FF7
:10368000F1CF86957105610508940895E894BB27EC
:1036900066277727CB0197F90895F999FECF92BD58
:1036A00081BDF89A992780B50895262FF999FECF04
:1036B0001FBA92BD81BD20BD0FB6F894FA9AF99A4F
:1036C0000FBE019608950E94A51BA59F900DB49F63
:1036D000900DA49F800D911D112408952F923F926B
:1036E0004F925F926F927F928F929F92AF92BF9212
:1036F000CF92DF92EF92FF920F931F93CF93DF93BE
:10370000CDB7DEB7CA1BDB0B0FB6F894DEBF0FBE1A
:10371000CDBF09942A88398848885F846E847D8467
:103720008C849B84AA84B984C884DF80EE80FD8069
:103730000C811B81AA81B981CE0FD11D0FB6F894DF
:10374000DEBF0FBECDBFED010895A29FB001B39FB4
:10375000C001A39F700D811D1124911DB29F700D9A
:10376000811D1124911D08950E94BB1B6894B11105
:103770000C94471B08950E942C1B88F09F5798F0CB
:10378000B92F9927B751B0F0E1F0660F771F881F66
:10379000991F1AF0BA95C9F714C0B13091F00E9480
:1037A000461BB1E008950C94461B672F782F88279D
:1037B000B85F39F0B93FCCF3869577956795B395A7
:1037C000D9F73EF490958095709561957F4F8F4F16
:1037D0009F4F089597FB072E16F4009407D077FDAE
:1037E00009D00E94201C07FC05D03EF490958195DD
:1037F0009F4F0895709561957F4F0895A1E21A2E0D
:10380000AA1BBB1BFD010DC0AA1FBB1FEE1FFF1F84
:10381000A217B307E407F50720F0A21BB30BE40BD4
:10382000F50B661F771F881F991F1A9469F760951B
:103830007095809590959B01AC01BD01CF010895D5
:10384000AA1BBB1B51E107C0AA1FBB1FA617B707C6
:1038500010F0A61BB70B881F991F5A95A9F78095E2
:103860009095BC01CD010895EE0FFF1F0590F491D6
:10387000E02D09940F931F93CF93DF93823091052E
:1038800010F482E090E0E091CE04F091CF0430E0BB
:1038900020E0B0E0A0E0309799F42115310509F45B
:1038A0004AC0281B390B24303105D8F58A819B8109
:1038B0006115710589F1FB0193838283FE0111C0BB
:1038C000408151810281138148175907E0F0481760
:1038D000590799F4109761F012960C93129713966A
:1038E0001C933296CF01DF91CF911F910F910895D4
:1038F0000093CE041093CF04F4CF2115310551F07D
:103900004217530738F0A901DB019A01BD01DF011D
:10391000F801C1CFEF01F9CF9093CF048093CE048B
:10392000CDCFFE01E20FF31F819391932250310915
:1039300039832883D7CF2091CC043091CD04232B19
:1039400041F420910401309105013093CD0420937E
:10395000CC0420910201309103012115310541F47D
:103960002DB73EB74091060150910701241B350B3E
:10397000E091CC04F091CD04E217F307A0F42E1BE4
:103980003F0B2817390778F0AC014E5F5F4F2417C3
:10399000350748F04E0F5F1F5093CD044093CC0481
:1039A000819391939FCFF0E0E0E09CCFCF93DF93A2
:1039B0000097E9F0FC01329713821282A091CE04A5
:1039C000B091CF04ED0130E020E01097A1F4208108
:1039D0003181820F931F2091CC043091CD042817A0
:1039E000390709F061C0F093CD04E093CC04DF9176
:1039F000CF910895EA01CE17DF07E8F54A815B8190
:103A00009E0141155105B1F7E901FB83EA83499114
:103A10005991C40FD51FEC17FD0761F48081918186
:103A20000296840F951FE90199838883828193818F
:103A30009B838A83F0E0E0E012968D919C9113972E
:103A40000097B9F52D913C911197CD010296820F07
:103A5000931F2091CC043091CD042817390739F6F3
:103A6000309751F51092CF041092CE04B093CD044C
:103A7000A093CC04BCCFD383C28340815181840FF7
:103A8000951FC817D90761F44E5F5F4F88819981F0
:103A9000480F591F518340838A819B81938382837E
:103AA0002115310509F0B0CFF093CF04E093CE0497
:103AB0009ECFFD01DC01C0CF13821282D7CFB0E0D0
:103AC000A0E0E5E6FDE10C94701B8C01009751F439
:103AD000CB010E943A1C8C01C801CDB7DEB7E0E1F2
:103AE0000C948C1BFC01E60FF71F9C01225031093E
:103AF000E217F30708F49DC0D901CD91DC9111972D
:103B0000C617D70798F0C530D10530F3CE0104971A
:103B10008617970708F3C61BD70B2297C193D1933B
:103B20006D937C93CF010E94D61CD6CF5B01AC1A5B
:103B3000BD0A4C018C0E9D1EA091CE04B091CF0405
:103B4000512C412CF12CE12C109731F58091CC04B3
:103B50009091CD048815990509F05CC0461657066A
:103B600008F058C08091020190910301009741F440
:103B70008DB79EB74091060150910701841B950BAC
:103B8000E817F90708F055C0F093CD04E093CC0492
:103B9000F90171836083A0CF8D919C91119712964A
:103BA0006C90129713967C901397A815B90559F548
:103BB0006C0142E0C40ED11CCA14DB0420F1AC013C
:103BC0004A195B09DA011296159780F062827382B6
:103BD00051834083D9016D937C93E114F10471F01A
:103BE000D7011396FC93EE93129776CF22968C0F03
:103BF0009D1FF90191838083F301EFCFF093CF04F0
:103C0000E093CE0469CF4816590608F42C017D01D3
:103C1000D3019ACFCB010E943A1C7C01009749F056
:103C2000AE01B8010E941C1EC8010E94D61C87016B
:103C300053CF10E000E050CFFB01DC0102C0019047
:103C40000D9241505040D8F70895FB01DC010190DE
:103C50000D920020E1F70895FB01DC014150504036
:103C600048F001900D920020C9F701C01D9241500B
:103C70005040E0F7089510E0C2E6D0E004C0FE0135
:103C80000E94341C2196C336D107C9F7F894FFCFA0
:103C90005A000000D00480000000400014005400CE
:103CA00006B20100000001000000000007B20100A0
:103CB000CF0400000000000008B20100D0040000A2
:103CC0000000000009B20100D10400000000000063
:103CD0000AB20100D2040000000000000BB2010093
:103CE000D304000000000000FF03D804340398034D
:103CF000DC0578050A006400A505E4072003D00769
:103D00001F1C1F1E1F1E1F1F1E1F1E1F0000000046
:103D100067028701B401B4022502C3011702000043
:103D20000000A8037B0304065103740361035203DC
:103D300000000000BB068701040603060D0A0053BD
:103D4000656E736F7220206F6620002042757A7A4C
:103D5000696E6720005361747572646179005375F0
:103D60006E646179004D6F6E64617900547565739E
:103D7000646179005765646E6573646179005468A5
:103D80007572736461790046726964617900456E89
:103D900064005374617274002D002B004143005481
:103DA000454D503A200043757272656E743A20009A
:103DB0005365742054656D700055736572204C69AD
:103DC0007374204D656E7500504552534F4E200060
:103DD0002C003A00494E0D004F55540D00506C65B3
:103DE00061736520456E7465722050617373776FDF
:103DF00072640030303030005E004C6F62627900D7
:103E0000476174686572696E6720726F6F6D0046F6
:103E100069780050726F6475636520726F6F6D0012
:103E200073656C6C20726F6F6D00574300636F7227
:103E300069646F72007273747572616E7400506C95
:103E4000616E205365740057656C636F6D65004249
:103E500079652042796500596F75722050617373DE
:103E6000776F72642069732077726F6E6700476F97
:103E70006F646279650057726F6E6720506173736B
:063E8000776F726421005F
:107E0000112484B714BE81FFF0D085E080938100F7
:107E100082E08093C00088E18093C10086E0809377
:107E2000C20080E18093C4008EE0C9D0259A86E02C
:107E300020E33CEF91E0309385002093840096BBD3
:107E4000B09BFECF1D9AA8958150A9F7CC24DD24C4
:107E500088248394B5E0AB2EA1E19A2EF3E0BF2EE7
:107E6000A2D0813461F49FD0082FAFD0023811F036
:107E7000013811F484E001C083E08DD089C08234E0
:107E800011F484E103C0853419F485E0A6D080C0E4
:107E9000853579F488D0E82EFF2485D0082F10E0AE
:107EA000102F00270E291F29000F111F8ED06801E7
:107EB0006FC0863521F484E090D080E0DECF843638
:107EC00009F040C070D06FD0082F6DD080E0C81688
:107ED00080E7D80618F4F601B7BEE895C0E0D1E017
:107EE00062D089930C17E1F7F0E0CF16F0E7DF06D8
:107EF00018F0F601B7BEE89568D007B600FCFDCFD4
:107F0000A601A0E0B1E02C9130E011968C91119780
:107F100090E0982F8827822B932B1296FA010C0160
:107F200087BEE89511244E5F5F4FF1E0A038BF0790
:107F300051F7F601A7BEE89507B600FCFDCF97BE46
:107F4000E89526C08437B1F42ED02DD0F82E2BD052
:107F50003CD0F601EF2C8F010F5F1F4F84911BD097
:107F6000EA94F801C1F70894C11CD11CFA94CF0C13
:107F7000D11C0EC0853739F428D08EE10CD085E9AC
:107F80000AD08FE07ACF813511F488E018D01DD067
:107F900080E101D065CF982F8091C00085FFFCCF94
:107FA0009093C60008958091C00087FFFCCF809118
:107FB000C00084FD01C0A8958091C6000895E0E648
:107FC000F0E098E1908380830895EDDF803219F02E
:107FD00088E0F5DFFFCF84E1DECF1F93182FE3DFCA
:107FE0001150E9F7F2DF1F91089580E0E8DFEE27F6
:047FF000FF270994CA
:027FFE00040479
:00000001FF
